:020000040800F2
:1000000000060020ED000008F5000008F7000008D9
:10001000F9000008FB000008FD00000800000000D7
:10002000000000000000000000000000FF000008C9
:10003000010100080000000003010008050100089C
:100040000701000807010008070100080701000870
:100050000701000807010008070100080701000860
:100060000701000807010008070100080701000850
:100070000701000807010008070100080701000840
:100080000701000807010008070100080701000830
:100090000701000807010008070100080701000820
:1000A0000701000807010008070100080701000810
:1000B0000701000807010008070100080701000800
:1000C00007010008070100080701000807010008F0
:1000D00007010008070100080701000807010008E0
:1000E00007010008070100080701000809488047C8
:1000F00009480047FEE7FEE7FEE7FEE7FEE7FEE70A
:10010000FEE7FEE7FEE7FEE704480549054A064B21
:100110007047000061020008C902000800000020CA
:1001200000060020000200200002002070477047F7
:100130007047000080B500F001F880BD84B0002059
:100140000390029041F20001C4F20201086840F4F9
:1001500080300860FFE741F20000C4F2020000684E
:1001600000F400300290039801300390FFE70299F9
:100170000020019039B9FFE70398B0F5A06018BFDF
:1001800001200190FFE70198C0070028E3D1FFE7B5
:1001900041F20000C4F2020000688003002803D589
:1001A000FFE70120029002E000200290FFE70298A2
:1001B000012851D1FFE742F20001C4F202010868B0
:1001C00040F010000860086820F007000860086828
:1001D00040F00200086041F20401C4F20201009103
:1001E0000868086008680860086840F48060086073
:1001F000086820F47C100860086840F4E810086083
:1002000041F20001C4F20201086840F08070086009
:10021000FFE741F20000C4F20200006880010028FC
:1002200001D4FFE7F5E741F20401C4F202010868D6
:1002300020F003000860086840F002000860FFE753
:1002400041F20400C4F20200006800F00C0008282B
:1002500001D0FFE7F4E700E0FFE704B070470000DB
:1002600080B541F20002C4F20202106840F00100C1
:10027000106041F20401C4F2020108680023CFF6C5
:10028000FF031840086010684FF6FF73CFF6F6635F
:1002900018401060106820F480201060086820F476
:1002A000FE00086041F20801C4F202014FF41F0091
:1002B0000860FFF73FFF4EF60851CEF200014FF005
:1002C0000060086080BD000000F02CF94FF00000D5
:1002D0004FF000014FF4A0734FF0F0044FF4784A50
:1002E00000F0FDF80FB5AD4908684FF001034FEA83
:1002F00003236FEA030300EA03000880A8490A7099
:10030000A64908684FF0010340EA032008800FBDAA
:100310000FB5A24908684FF0010340EA4320088066
:100320009E4908684FF001034FEAC3136FEA0303C5
:1003300000EA03000880FFF7D5FF0FBD0FB597490E
:1003400008684FF0010340EA432008809349086899
:100350004FF0010340EAC3100880FFF7C3FF0FBD51
:100360000FB58E4908684FF0010340EAC33008809A
:1003700000F00EF9894908684FF001034FEAC333D2
:100380006FEA030300EA0300088000F001F98349E3
:1003900008684FF0010340EAC330088000F0F8F825
:1003A0007E4908684FF0010340EA831008607B49EA
:1003B00008684FF0010340EA032008807749086885
:1003C0004FF0010340EA43200880744908684FF069
:1003D00001034FEA83136FEA030300EA0300086096
:1003E0004FF0C502FFF794FF4FF07F02FFF7A6FF23
:1003F0004FF00002FFF7A2FF4FF03602FFF788FF31
:100400004FF06002FFF79AFF4FF03A02FFF780FFCC
:100410004FF05502FFF792FF4FF01102FFF778FF00
:1004200000F0B6F84FF02902FFF772FF4FF02002FC
:10043000FFF76EFF4FF02C02FFF76AFF0FBD1FB5ED
:100440004FF02A02FFF764FF02464FEA1222FFF73D
:1004500075FF0246FFF772FF0A464FEA1222FFF7C6
:100460006DFF0A46FFF76AFF4FF02B02FFF750FFC0
:100470001A464FEA1222FFF761FF1A46FFF75EFFA6
:1004800022464FEA1222FFF759FF2246FFF756FF96
:100490004FF02C02FFF73CFF1FBD2DE93F443F4BBF
:1004A0001C684FF001054FEA85156FEA050504EA5F
:1004B00005041C600B4600F1010103F10104FFF784
:1004C000BEFF4FF02C02FFF723FF52464FEA1222E5
:1004D000FFF734FF5246FFF731FFBDE83F842DE9B7
:1004E000FF5F1FB402B408B402BC08BCFFF7A7FF4B
:1004F0001FBC1B1A03F10103641A04F1010403FB7E
:1005000004F34FF02C02FFF703FF52464FEA12228A
:10051000FFF714FF5246FFF711FF5B1E002BF4DCC0
:10052000BDE8FF9F2DE9FF5F00F004F8FFF718FF1B
:10053000BDE8FF9F07B51B4801684FF0010241EA83
:100540008201016018484FF03332026017484FF0C3
:1005500033320260134801684FF0010241EA021190
:1005600001601348016821F4700141F440110160F9
:100570000C4801684FF0010241EAC20101600D48D8
:100580004FF0333101600C484FF03331016007BD4B
:1005900001B50A4801380028FCDC01BD0C0C014003
:1005A0000C080140181002400008014004080140F6
:1005B00004100140000C0140040C0140046056008E
:04000005080000ED02
:00000001FF
